:020000040000FA
:0600000056EF0FF01200A4
:020006001200E6
:0600080053EF0DF01200A1
:02000E000000F0
:020010000000EE
:060018001AEF0DF01200CA
:02001E000500DB
:10002000331F000080000000300000000E000000C0
:100030002A0F000004000000121F0000DA00000078
:1000400021000000E81E0000B00000002A000000AF
:0C005000C81E0000000F0000200000008F
:04005C0062D8180E40
:10006000E66E1C0E7BEC06F07FEC06F0080EE66EEA
:100070001C0EE66EE66A010EE66E7FEC06F055ECAD
:1000800006F00F010B51FDE00B6B7BEC0CF083DAFB
:100090000001D207000ED35BD251D31105E1140E3B
:1000A000D26FD36B86EC05F012EC09F0EAD713ECB3
:1000B00006F0040EE126DE6ADD6AC5EC06F04EECC1
:1000C00006F011501318E8AE02D0133404D01250C9
:1000D000105C135011581DE2020EDB6A030EDB6A3E
:1000E000020EDBCF10F0030EDBCF11F0D8901150D1
:1000F00004E6A00E105C000E115806E2020EDB2A88
:10010000030EEEE3DB2AECD7DF2A010ED6E3DB2A6F
:10011000D4D7040EE15C02E2E16AE552E16E18EF29
:1001200006F0936A956A96EC07F0D2EC08F0836AC1
:1001300012EC0DF055EC06F0570EE66E120EE66E60
:1001400013EC0BF0E552E552AE0EE66E240EE66EB1
:1001500029EC0BF0E552E552660EE66EB70EE66E40
:1001600058EC0BF0E552E552020EE66EE66AB1EC91
:100170000BF0E552E5520A0EE66EE66ABDEC0BF0B6
:10018000E552E552320EE66EE66AD6EC0BF0E55229
:10019000E55245EF0CF0EDEC06F00EE14EEC06F00A
:1001A000133404E212500708000E135405E348EC20
:1001B00006F0EF508310836E18EF06F0EDEC06F0BA
:1001C0000EE14EEC06F0133404E212500708000E64
:1001D000135405E348EC06F0EF1C8314836E18EF0C
:1001E00006F013EC06F004EC06F0EF0409E186ECEF
:1001F00006F0E4DFE552E55204EC06F0EF6A09D0C0
:1002000086EC06F0C8DFE552E55204EC06F0010E7C
:10021000EF6E18EF06F009EC07F0C5EC06F01134AC
:1002200004E210500708000E115413E3DECFE6FF7E
:10023000DDCFE6FFB0DFE4EC06F0DECFE6FFDDCF9A
:10024000E6FFBCDFE4EC06F0DF2A010EE6E3DB2A82
:10025000E4D7020EE15C02E2E16AE552E16E18EFDA
:1002600006F00FEC07F001E1ED500EE014EC07F0A2
:10027000140E105C000E115809E3F2EC05F08DEC41
:1002800006F004E1135002E1010E01D0000E18EF58
:1002900006F00FEC07F001E1ED500EE014EC07F072
:1002A0003C0E105C000E115809E3F2EC05F08DECE9
:1002B00006F004E1135002E1010E01D0000E18EF28
:1002C00006F00001010E8A1903E18B5101E1010CD6
:1002D000000C080E1AEC07F0010802E10001D42B13
:1002E000F0DF000902E00001D407030EE66E1C0EE9
:1002F000E1EC06F0D4C010F0116A126A136A10AE75
:1003000003D0116812681368E9EC05F0E66AE66A42
:10031000F5EF05F0C4C010F0C5C011F00AEC06F00E
:100320000001C2510824C26FC3510920C36FC2C06B
:1003300010F0116E3C0E0D6E0E6AC2C008F05EEC3D
:1003400006F00001C0510824C06FC1510920C16FDF
:10035000C0C010F0116E27EC07F0C0C008F05EECD2
:1003600006F00001C8510824C86FC9510920C96F9F
:10037000200EC81909E1C95107E13E0ED85D04E21B
:10038000010EC86FC96BD82B200EC8190DE1C951D9
:100390000BE13E0ED85D08E1010EC86FC96B330E4C
:1003A000D86FCA2B000ECB23640ECBAF02D0D890EF
:1003B00003D0CA5D000ECB5902E3F4EC06F03C0E0C
:1003C0000001C5AF02D0D89003D0C45D000EC5595E
:1003D00002E321EC07F03C0E0001C3AF02D0D8903D
:1003E00003D0C25D000EC35902E32AEC06F0180EDA
:1003F0000001C1AF02D0D89003D0C05D000EC1593A
:1004000002E338EC06F012001D0E0001C9AF02D065
:10041000D89003D0C85D000EC9590FE3340ED85DE3
:100420000CE1FBEC06F004E10001CA51CB1105E13F
:10043000010E0001C86FC96BD82B1E0EC9AF02D0C8
:10044000D89003D0C85D000EC9590EE3340ED85DB4
:100450000BE1CA51CB1108E0FBEC06F005E1010EFF
:100460000001C86FC96BD82B1F0E0001C9AF02D0A5
:10047000D89003D0C85D000EC95910E3360ED85D80
:1004800009E0380ED85D06E03B0ED85D03E03D0E76
:10049000D85D04E1010EC86FC96BD82B12000001B2
:1004A000D751570A25E0010A1FE0030A19E0010AA3
:1004B00013E0070A0DE0010A07E0030A01E0120059
:1004C000FF0EE66E1B0E17D0FB0EE66E1B0E13D052
:1004D000F70EE66E1B0E0FD0F30EE66E1B0E0BD062
:1004E000EF0EE66E1B0E07D0EB0EE66E1B0E03D072
:1004F000E70EE66E1B0EE1EF06F00001D8513E0A52
:1005000043E0030A3DE0010A37E0070A31E0010A4F
:100510002BE0030A25E0010A1FE00F0A19E0010A97
:1005200013E0030A0DE0010A07E0070A01E01200E8
:10053000E30EE66E1B0E2BD0DF0EE66E1B0E27D0F1
:10054000DB0EE66E1B0E23D0D70EE66E1B0E1FD001
:10055000D30EE66E1B0E1BD0CF0EE66E1B0E17D011
:10056000CB0EE66E1B0E13D0C70EE66E1B0E0FD021
:10057000C30EE66E1B0E0BD0BF0EE66E1B0E07D031
:10058000BB0EE66E1B0E03D0B70EE66E1B0EE66EBC
:10059000050ECEEF06F00001D551140A01E171D12C
:1005A000180A01E14FD1070A01E126D12E0A01E123
:1005B00000D1010A01E1D4D0070A01E1A6D03B0A2B
:1005C00001E180D00F0A64E0010A48E0030A2CE050
:1005D0001F0A0BE00A0A01E06FD116DFD4EC06F027
:1005E00001E16BD100010A0EB9D00A0ED3AF02D0DF
:1005F000D89003D0D25D000ED35905E2B30EE66E5B
:100600001B0EE1EC06F0D0DB03E00001150ED56F08
:10061000CEDB01E152D1570E0001D75D03E1510E4F
:10062000D76F1200D72B12000A0ED3AF02D0D8908A
:1006300003D0D25D000ED35903E24EDB040EAADBD9
:10064000B3DB03E00001160ED56FB1DB01E135D15C
:100650000001C02B000EC12338EF06F00A0ED3AF05
:1006600002D0D89003D0D25D000ED35903E234DB20
:10067000070E90DB99DB03E00001170ED56F97DBC7
:1006800001E11BD10001C22B000EC3232AEF06F0AB
:100690000A0ED3AF02D0D89003D0D25D000ED3594A
:1006A00003E21ADB0A0E76DB7FDB03E00001180EA3
:1006B000D56F7DDB01E101D10001C42B000EC52304
:1006C00021EF07F00A0ED3AF02D0D89003D0D25D4D
:1006D000000ED35906E2B30EE66E1B0EE66E0D0E4B
:1006E00059DB65DB09E00001C651C71102E0C66BAA
:1006F00002D0010EC66FC76BA4DA03E00001230E1F
:100700002DD052DB01E1D9D021D0010ED96F0A0ED4
:10071000D3AF02D0D89003D0D25D000ED35903E2FC
:10072000E0DA030E37DB43DB0FE00001CC2B000ED9
:10073000CD238DDBCCC008F0CDC009F015EC0EF058
:1007400004C0CCF005C0CDF07CDA03E000010B0E54
:1007500005D02ADB01E1B1D00001240ED56F1200D3
:100760000A0ED3AF02D0D89003D0D25D000ED35979
:1007700003E2B7DA060E0EDB64DA03E000010B0ECB
:1007800004D012DB03E00001250ED56F10DB01E180
:1007900094D00001CE2B000ECF2359DBCEC008F041
:1007A000CFC009F015EC0EF004C0CEF005C0CFF0BC
:1007B00012000A0ED3AF02D0D89003D0D25D000E43
:1007C000D35903E28EDA090EE5DAEEDA03E000012E
:1007D0000B0ED56FECDA71E00001D02B000ED123A7
:1007E00036DBD0C008F0D1C009F015EC0EF004C023
:1007F000D0F005C0D1F01200D96B0A0ED3AF02D0F1
:10080000D89003D0D25D000ED35903E265DA020E10
:10081000C5DACADA03E000010C0ED56FC8DA4DE084
:100820000001C82B000EC923200E0D6E0E6AC8C031
:1008300008F0C9C009F015EC0EF004C0C8F005C0FE
:10084000C9F012000A0ED3AF02D0D89003D0D25D07
:10085000000ED35906E2B30EE66E1B0EE66E050ED1
:100860009DDAA2DA03E00001140ED56FA0DA25E0CC
:100870003E0E0001D85D03E1330ED86F1200D82B75
:1008800012000A0ED3AF02D0D89003D0D25D000E72
:10089000D35906E2030EE66E1C0EE66E090E7EDAF2
:1008A00083DA02E00001D56B82DA07E00001CA2B8F
:1008B000000ECB23F4EF06F0D56B12000001C42B21
:1008C000000EC52327DDEBDD0A0E0001C1AF02D00B
:1008D000D89003D0C05D000EC1590BE2ADD9040E13
:1008E00059DA22DA11AE02D01268136872D9050EF5
:1008F00007D01ADA11AE02D0126813686AD9040E52
:1009000050DA060EACDA0001C3AF02D0D89003D0A3
:10091000C25D000EC3590BE28FD9070E3BDA0BDA2A
:1009200011AE02D01268136854D9080E07D003DA4A
:1009300011AE02D0126813684CD9070E32DA090ED4
:100940008EDA0001C5AF02D0D89003D0C45D000E8E
:10095000C5590BE271D90A0E1DDAF4D911AE02D0D5
:100960001268136836D90B0E07D0ECD911AE02D03D
:10097000126813682ED90A0E6EDA0001C651C7112B
:1009800004E0A70EE66E1B0E03D0A30EE66E1B0E50
:10099000E66E0D0E64DA0001C9AF02D0D89003D024
:1009A000C85D000EC9590BE247D9020EF7D9D1D95B
:1009B00011AE02D0126813680CD9030E07D0C9D942
:1009C00011AE02D01268136804D9020E5DD90DD998
:1009D00088D9040EE3D991DDA00EE66E1B0EE66EFB
:1009E000090EDCD90A0E0001CBAF02D0D89003D09B
:1009F000CA5D000ECB590DE21FD90B0ECFD967D9B6
:100A0000126A136A11AE02D012681368E2D80C0E93
:100A100009D05DD9126A136A11AE02D01268136848
:100A2000D8D80B0E31D9F5EF05F09E0EE66E1B0EF1
:100A3000C8D90A0E0001CDAF02D0D89003D0CC5D4A
:100A4000000ECD590BE2F8D8020EA4D989D911AE07
:100A500002D012681368BDD8030E07D081D911AE39
:100A600002D012681368B5D8020E9BD9040EF7D9CC
:100A70000001CFAF02D0D89003D0CE5D000ECF5989
:100A80000BE2DAD8050E86D972D911AE02D01268FF
:100A900013689FD8060E07D06AD911AE02D012682B
:100AA000136897D8050E7DD9070ED9D90001D1AFAB
:100AB00002D0D89003D0D05D000ED1590BE2BCD843
:100AC000080E68D95BD911AE02D01268136881D8BC
:100AD000090E07D053D911AE02D01268136879D825
:100AE000080E2BEF07F00001C451C5110EE1010EF5
:100AF000C2190BE1C35109E1090EC01906E1C15148
:100B000004E18A0EE66E1B0E5CD912000001D95179
:100B100003E1D2EC08F0D2DE0001D90503E1D2EC0A
:100B200008F083DF0001CC51C0191DE1CD51C1197E
:100B30001AE1CE51C21917E1CF51C31914E1C535DD
:100B400004E2C4510A08000EC5550DE3010EC61992
:100B50000AE1C75108E1D2EC08F0800EE66E1B0EE8
:100B6000E66E020E17D9120054D90FD9D890115041
:100B700004E6100E105C000E11581AE2DECFE9FFF9
:100B8000DDCFEAFF3ED9EE50ED1004E07E0EE66EBA
:100B90001B0E03D0AE0EE66E1B0EE66EDFCFE6FF39
:100BA000010EE66E0CD8DF2A010EDFE3DB2ADDD76B
:100BB000020EE15C02E2E16AE552E16E39D0A2EC9C
:100BC00009F0E552E552E552E552120033D9000929
:100BD000120010C0E6FF11C0E6FF12C0E6FF13C00E
:100BE000E6FF1200E7D801EF07F051EC09F0146EB0
:100BF000060EE15E145012000D6E0E6ACAC008F0B7
:100C0000CBC009F015EF0EF0D5D8B80EE926000ECE
:100C1000EA2212003C0E0D6E0E6AC4C008F0C5C078
:100C200009F015EF0EF0D9CFE6FFE1CFD9FF1200A2
:100C3000E552E7CFD9FF1200AC0EE66E1B0EE66E52
:100C40001200000EE66EE66A49EC01F0E552E5524C
:100C5000000912003C0E0D6E0E6AC2C008F0C3C03F
:100C600009F015EC0EF004C0C2F005C0C3F012008C
:100C7000EED8C0C008F0C1C009F015EC0EF004C0F9
:100C8000C0F005C0C1F01200E66E010EE66E120063
:100C900091D8B00EE926000EEA221200FD0EDBCF3D
:100CA00012F0FE0EDBCF13F01200E80EE66E030E1C
:100CB000E66E57EC00F0E552E552120011C009F063
:100CC00015EC0EF008C010F009C011F01200CAC0F7
:100CD00010F0CBC011F01200B00EE66E1B0EE66EE7
:100CE0001200AE0EE66E1B0EE66E1200AA0EE66E47
:100CF0001B0EE66E1200E66EE66AE66A1200B4ECBF
:100D000008F0E552E552E552E5521200FD0EDBCF48
:100D1000E6FFFE0EDBCFE6FF1200EECF12F0136A05
:100D2000010E121612181200C0C010F0C1C011F04E
:100D3000126A136A1200C2C010F0C3C011F0126A26
:100D4000136A1200C4C010F0C5C011F0126A136A11
:100D50001200C8C010F0C9C011F0126A136A120064
:100D6000CCC010F0CDC011F0126A136A1200CEC0D0
:100D700010F0CFC011F0126A136A1200D0C010F048
:100D8000D1C011F0126A136A1200DECF10F0DDCF6D
:100D900011F01200E66EE66ADFEF05F075DFDFEFB7
:100DA00005F059D876EF06F0000EE6EF05F0010EDB
:100DB000E6EF05F0FD0EDBCFE9FFFE0EDBCFEAFF2D
:100DC000120099DFDFEF05F0E552E552F40E5CDF2B
:100DD00057EC00F0E552E552120025DFFE0EDBCFA6
:100DE00011F0800E11141200640E06DF04C0CAF068
:100DF00005C0CBF012006BDF040EFEDE04500510C0
:100E00001200D890E936EA36800EE926000EEA2272
:100E1000120009DF020EE126DE6ADD6A120003DF3E
:100E2000E1DE010EEE181200DDDEEECF10F0EFCFA6
:100E300011F01200E66EE66A31EC01F0E552E5527F
:100E40001200E8DE04C0C4F005C0C5F01200180EA0
:100E50000D6E0E6A1200E66EE66AF5EF05F09ADF97
:040E60000A0E120064
:0C0E6400C5DBDECF10F0DDCF11F0FE0E7C
:100E7000DB50000111AE02D0D89003D0105C000E00
:100E8000115813E23CDBEEDA04E6010E105C000EB2
:100E9000115806E2020EDB2A030EF5E3DB2AF3D734
:100EA000DF2A010EE0E3DB2ADED7040EE15C02E27A
:100EB000E16AE552E16E72D29BDBDECF10F0DDCF4E
:100EC00011F0126A136A11AE02D012681368D95079
:100ED000FB0F4EDBEE50105CEE501158EE501258E6
:100EE000EE50135813E20BDBBDDA04E6A00E105CE3
:100EF000000E115806E2020EDB2A030EF5E3DB2A90
:100F0000F3D7DF2A010ED9E3DB2AD7D7040EE15C41
:100F100002E2E16AE552E16E41D270DBF00B04DBE4
:100F2000FE0EDB38F00B811226DA38D250DB190EB8
:100F3000F4DA0F0E8116F80E81160F0E8116300EA0
:100F4000F3DA300EF1DA300EEFDA818A14DA280E95
:100F5000E66EE3DFE5520C0EE66EDFDFE552E552AA
:100F60001DD24CDB811281862DDB81962BDB16D2C4
:100F700010DA819448DA12D20CDA818444DA81944E
:100F80000DD207DAFE0EDBCFE6FFF6DFE55206D222
:100F900000DAFD0EDBCFF6FFFE0EDBCFF7FF080019
:100FA000F5500DE0FD0EDBCFF6FFDB2AFE0EDBCFAA
:100FB000F7FF01E3DB2A0800F550DFDAEAD7EED1CC
:100FC000E8D9050EE126010EF36EDB6E98DA040E09
:100FD000DB6ADF6ADFCF10F0116A10BE11687ADABF
:100FE00011501318E8AE02D0133404D01250105C24
:100FF000135011581FE2FD0EDBCF10F0FE0EDBCFB9
:1010000011F0126A136A11AE02D012681368D95037
:10101000010FE96EDACFEAFF10C00BF011C00CF03F
:1010200012C00DF013C00EF0B2DAB7EC0EF0B8DA61
:10103000DF2AD0D7010EDBCF10F0020EDBCF11F08C
:10104000030EDBCF12F0040EDBCF13F010C006F05E
:1010500011C007F012C008F013C009F0050EE15CE2
:1010600002E2E16AE552E16E99D193D9020EE126DE
:10107000DF6AFB0EDBCF10F0FC0EDBCF11F0FD0EB4
:10108000DBCF12F0FE0EDBCF13F010501110121058
:10109000131003E1300E71DA36D0D950FB0FEBD9C3
:1010A00001E6EFD905E22D0E68DAD950FB0FBDD964
:1010B000DE520A0EDD6E15DAE8AE02D0103403D02F
:1010C000E750D88010541FE2F4D914BE15685AD9DD
:1010D0001BDA2FDADFD90BE0010EDF6EDB04186EAE
:1010E000196A18BE196867D924DA80D903D0DF508D
:1010F00002E0300E42DADDD914BE156843D9D9506A
:10110000FB0F50D9D8D7020EE15C02E2E16AE5524A
:10111000E16E44D15CDAFE0EDB50010A04E0010A04
:1011200004E1800E01D0C00EDF6EFD0EDB50DF2427
:10113000DF6EDFCFE6FF1CDFE552E5522FD1010E57
:10114000E66E16DFE5520AEF0BF0FED9D950F90F23
:101150000FDAEECFE6FFEECFE6FFEECFE6FFEFCF02
:10116000E6FF83DF5BDA1AD1EFD9FB0EDBCFE6FFB8
:10117000FC0EDBCFE6FF0CDFE552E5520FD109D9BB
:10118000FBC010F0FCC011F0040ED89010361136E0
:10119000E806FBE15BD9FE0EDBCFEFFFFD2B000E77
:1011A000FE23FCD014DADF6A7ED9E8AE02D0E73441
:1011B00002D0E750105C0DE2DFCFE9FFEA6AE9BE3A
:1011C000EA6896D9DFCFE9FFEA6AE9BEEA687AD928
:1011D000EBD7E552E3D0FBD9DF6A65D9E8AE02D0A0
:1011E000E73402D0E750105C08E2DFCFE9FFEA6A9B
:1011F000E9BEEA687DD9DF2AF0D7E552CFD0E7D93A
:10120000DF6A51D9E8AE02D0E73402D0E750105C73
:1012100007E2DFCFE9FFEA6AE9BEEA6853D9F1D70E
:10122000E552BCD0D4D9F6D9DF6A100EDF5C02E2F9
:10123000D1D9FBD7E9D9100EDF5C02E2D2D9FBD7B6
:10124000E552ACD0C4D90001DA51010A0DE0010A1F
:1012500014E1E0D9DF6A100EDF5C02E2BBD9FBD7F4
:101260000001010EDA6F0AD0CFD9100EDF5C02E266
:10127000B8D9FBD70001DA6B01D0DA6BE5528ED01A
:1012800088D8A8D8FBC010F0FCC011F0040ED8908C
:1012900010361136E806FBE1D9D8FC0EDBCFEFFFA4
:1012A0007DD077D8020EE126DF6A94D8F90EDBCF25
:1012B00010F0FA0EDBCF11F00DD9105011101210F2
:1012C000131003E1300EFAD836D0D950F90FD3D825
:1012D00001E6D7D805E22D0EF1D8D950F90FA5D8DF
:1012E000DE520A0EDD6EFDD8E8AE02D0103403D017
:1012F000E750D88010541FE2DCD814BE156842D8DD
:1013000003D92BD9C7D80BE0010EDF6EDB04186EB2
:10131000196A18BE19684FD820D968D803D0DF5091
:1013200002E0300ECBD8C5D814BE15682BD8D950E2
:10133000F90F38D8D8D7020EE15C02E2E16AE55233
:10134000E16E2CD026D846D8FB0EDBCFF6FFFC0E84
:10135000DBCFF7FF0800F5500DE0FB0EDBCFF6FF0B
:10136000DB2AFC0EDBCFF7FF01E3DB2A0800F55098
:10137000A5D8EAD713D08186010ECFD88196010E69
:101380008DEF0AF014C0E6FF15C0E6FFFAD8D9EFDA
:101390000AF0D9CFE6FFE1CFD9FF1200E552E7CF3F
:1013A000D9FF1200E5D8B0D8F2D8EFEC0EF0F8D89B
:1013B000010EDB06120018C0E6FF19C0E6FFE1D8F7
:1013C00006C014F007C015F008C016F009C017F0E9
:1013D00084EF0AF0FE0EDB50010B0001FB6FFC6B8B
:1013E000FD0EDB500F0BFD6FFE6B1200DBCF09F023
:1013F000EFEC0EF0DED8300E1026000E1122122275
:10140000132210501200DED8FE0EDBCFE6FFA9DD5E
:10141000E552FE0EDB38F00BE66EA3DDE55212005E
:10142000EA22EF50AAD8DF2A1200A2D8000EEE6CF2
:10143000EF1EEE22EF1EEE22EF1EEF22ED52ED52D6
:10144000ED52120067DEE552E5521200DB0E102667
:10145000000E112210500001FD25E96E1150FE21F1
:10146000EA6E1200020EDBCF10F0030EDBCF11F09C
:10147000D890115012007CD8D890030EEB50000A7F
:101480001200000EEE5C000EEE58000EEE58000E3C
:10149000EE581200DBCF09F0EFEC0EF0065007100B
:1014A000081009101200DFCF10F0100EE76E1018B0
:1014B0001200010EDB04146E156A1200E66E5FDE88
:1014C000E5521200EB0EE926000EEA22200EEF6E26
:1014D000DF2A1200FB0EDBCF12F0FC0EDBCF13F085
:1014E0001200010EDBCF10F0000EE76E1018120094
:1014F000DB0EE926000EEA22200EEF6E1200020E2D
:10150000DB6A030EDB6A120006C00BF007C00CF0AA
:1015100008C00DF009C00EF01200E66EE66AE66A39
:10152000E66ACADC0EEF0BF0811225DF0F0E811682
:101530001200FB0EDBCF06F0FC0EDBCF07F0FD0E3A
:10154000DBCF08F0FE0E120024DFFD0EDBCFE6FF3E
:10155000FE0EDBCFE6FF22EF0AF0F90EDBCF06F03E
:10156000FA0EDBCF07F0FB0EDBCF08F0FC0E12000B
:10157000E96EFF0EDA20EA6E1200E66E02DDE55239
:1015800012000A0EE66EE66A1BDD0EEF0BF0EECFE0
:1015900006F0EECF07F0EECF08F0EFCF09F0120023
:1015A00005C0EDFF04C0EDFF03C0EDFF02C0EFFF7B
:1015B000120006C010F007C011F008C012F009C0F8
:1015C00013F01200010EE66E4DDCE5521200E1DE72
:1015D000E6521200DF50EA6ADB0FE96E000E10EFF0
:1015E0000AF0DF50EA6AEB0FE96E000E10EF0AF026
:1015F000D0DE040EE126DE6ADD6A1200CADE0F0EBE
:101600008116FE0EDB501200E66A010EE66E1ADF4E
:10161000DF6A1200E66AE66A22EF0AF0E552E55256
:06162000E552E552120044
:0A162600F1D8D59EFD0EDBCF00FFCA
:10163000FE0EDBCF01FFD59C05D9D59AD586F28A5F
:10164000F294F184D58EE6D0D59E1200FBD8D58ECB
:101650001200DBD8CD90FD0EDBCF02FFFE0EDBCFFC
:1016600003FFF7D89D809E909F90CD8ECD8CCD9816
:10167000CD9ACD96CD92CD80CDD0EBD8CD80120035
:10168000CD901200C2D8CA94CC6AFE0EDB500F0176
:10169000046F056BCB6E9D829E929F92CA90CA92F8
:1016A000CA84B8D004CFCBFFCA841200CA941200F7
:1016B000ACD8B190FD0EDBCF06FFFE0EDBCF07FFEF
:1016C000CFD80750B36ECCD8B5D8B26EA082A19255
:1016D000A292B18EB198B19AB192B1809BD0C0D88C
:1016E0000350B26EBDD89ED8B36EB1801200B190D7
:1016F00012000F01102B000E11231851105D19510B
:10170000115904E3106B116B010E086F12000F01E9
:10171000122B000E13231A51125D1B51135904E3AF
:10172000126B136B010E096F12000F01142B000EC8
:1017300015231C51145D1D51155904E3146B156BD1
:10174000010E0A6F12000F01162B000E17231E51F7
:10175000165D1F51175904E3166B176B010E0B6FC3
:10176000120053D8FD0EDBCF18FFFE0EDBCF19FFA2
:101770000F01106B116B086B4DD047D8FD0EDBCFFE
:101780001AFFFE0EDBCF1BFF050E0D6E0E6A1ACF81
:1017900008F01BCF09F015EC0EF008C01AFF09C0C5
:1017A0001BFF0F01126B136B096B34D02ED8FD0E8B
:1017B000DBCF1EFFFE0EDBCF1FFF0A0E0D6E0E6A83
:1017C0001ECF08F01FCF09F015EC0EF008C01EFF69
:1017D00009C01FFF0F01166B176B0B6B1BD0186A2C
:1017E0001650135C106E17501458116E185015587F
:1017F000126E0C6A010E0D6E0E6A10C007F011C059
:1018000008F012C009F03BEF0EF0D9CFE6FFE1CFB0
:10181000D9FF1200E552E7CFD9FF12001368146810
:10182000156A120007C010F008C011F009C012F0CC
:101830000750120003C010F004C011F005C012F0F0
:101840000350120014D80350D66E11D8EBDFD76EB8
:10185000120014D80750CF6E11D8ECDFCE6E1200F4
:10186000DDDF06CF16F007CF17F0EFEF0BF0D6DF76
:1018700000CF16F001CF17F0EFEF0BF0CFDF02CF64
:0A18800016F003CF17F0EFEF0BF0A6
:06188A000F0E946E82684F
:101890001200ACD8A0D8115004E6080E105C000E5F
:1018A00011581FE29ED8A80EE926000EEA22EF503A
:1018B00082140FE1B4D8EECF10F0EFCF11F0010E8B
:1018C0001026000E1122ABD810C0EEFF11C0EDFFA4
:1018D00003D0A5D8EE6AED6ADF2A010EDBE3DB2A2E
:1018E000D9D7040EE15C02E2E16AE552E16EE5520D
:1018F000E7CFD9FF12007AD86ED8115004E6040E53
:10190000105C000E115855E26CD8A00EE926000EAE
:10191000EA22EF1C826E020EDB6A030EDB6A020E05
:10192000DBCF10F0030EDBCF11F0D890115004E69E
:10193000040E105C000E115837E2020EDBCFE9FFF7
:10194000030EDBCFEAFFA40EE926000EEA22EF50D9
:10195000821421E1DECF14F0DDCF15F0D8901436DB
:101960001536D89014361536020EDB501424E96E65
:10197000030EDB501520EA6E26D8EECF12F0EFCF23
:1019800013F0010E1226000E132239D812C0EEFFFA
:1019900013C0EDFF03D033D8EE6AED6A020EDB2AE6
:1019A000030EBDE3DB2ABBD7DF2A010EA5E3DB2A4A
:1019B000A3D7040EE15C02E2E16AE552E16EE55272
:1019C000E7CFD9FF1200D890E936EA36800EE92633
:1019D000000EEA221200DECF10F0DDCF11F0D89019
:1019E0001200DECFE9FFDDCFEAFF1200D9CFE6FF1C
:1019F000E1CFD9FF040EE126DE6ADD6A1200EBDFDB
:101A000010361136D89010361136020EDB501024E5
:101A1000E96E030EDB501120EA6EE3EF0CF0E1DF1C
:041A2000E3EF0CF0F4
:0C1A2400F28ED08EF28C1200F19CF29237
:101A3000F2881200D8CFE4FFE0CFE4FFE46E62D872
:101A400000EE00F0100EE80403E3EECFE4FFFBD756
:101A500000EE10F00A0EE80403E3EECFE4FFFBD73C
:101A6000E652F2B477D89EB07CD8A1B281D8F2B257
:101A7000F2929EBA9E9AE55200EE19F00A0EE80420
:101A800003E3E5CFEDFFFBD700EE0FF0100EE80407
:101A900003E3E5CFEDFFFBD74AD8E550E5CFE0FF04
:101AA000E5CFD8FF10002ED800EE00F0100EE804AD
:101AB00003E3EECFE4FFFBD700EE10F00A0EE804DC
:101AC00003E3EECFE4FFFBD7E652F2B443D89EB077
:101AD00048D8A1B24DD8F2B2F2929EBA9E9AE5527F
:101AE00000EE19F00A0EE80403E3E5CFEDFFFBD7A3
:101AF00000EE0FF0100EE80403E3E5CFEDFFFBD797
:101B000016D81100DACFE4FFE2CFDAFFE9CFE4FF25
:101B1000EACFE4FFF6CFE4FFF7CFE4FFF5CFE4FF31
:101B2000F3CFE4FFF4CFE4FFFACFE4FF1200E5CFF8
:101B3000FAFFE5CFF4FFE5CFF3FFE5CFF5FFE5CF03
:101B4000F7FFE5CFF6FFE5CFEAFFE5CFE9FFE5CF09
:101B5000DAFF120024EC0BF0F29426EC0BF079EF94
:101B60000BF040EC0BF09E903DEC0BF087EF0BF090
:0E1B700077EC0BF0A1926FEC0BF0A3EF0BF0F3
:021B7E005F0006
:101B800042414F20544855432100544F4920474972
:101B90004F204449204E475520524F4921004100D3
:101BA0003230004F4646004F4E003A0030002000D1
:101BB00020200020202000444543004E4F56004F77
:101BC00043540053455000415547004A554C004A84
:101BD000554E004D415900415052004D4152004672
:101BE0004542004A414E0053415400465249005478
:101BF00048550057454400545553004D4F4E00532F
:101C0000554E002020202000547569206C6120640E
:101C10006F6E6720686F210058696E206368616F7E
:091C2000206361632062616E0023
:061C2A00006A0EAE1EEF81
:101C30000EF00D6C0E1EE86A0E22001E09AE26EF95
:101C40000EF0086C091EE86A0922001E30EC0FF045
:101C500009BE36EF0EF000AE000C086C091EE86AF3
:101C60000922046C051EE86A0522000C00BE2DEF57
:101C70000EF00188FF0C006A0EAE46EF0EF00C6C01
:101C80000D1E0E1EE86A0D220E22001E09AE50EF38
:101C90000EF0076C081E091EE86A08220922001EC1
:101CA00013EC0FF009BE63EF0EF000AE000C076CF2
:101CB000081E091EE86A08220922036C041E051E7C
:101CC00004220522000C00BE57EF0EF00188FF0C25
:101CD0001E0EF66E000EF76E000EF86E0F01090074
:101CE000F550256F0900F550266F03E1256701D0F7
:101CF0003DD00900F550206F0900F550216F090013
:101D0000F550226F09000900F550E96E0900F55001
:101D1000EA6E090009000900F550236F0900F5502B
:101D2000246F09000900F6CF27FFF7CF28FFF8CF6F
:101D300029FF20CFF6FF21CFF7FF22CFF8FF0F01B9
:101D4000235302E1245307E00900F550EE6E230708
:101D5000F8E22407F9D727CFF6FF28CFF7FF29CFDE
:0E1D6000F8FF0F012507000E265BBFD712000B
:021D6E0006501D
:101D70000B02F3CF02F0F4CF03F00C02F350032672
:101D8000000EF420046E06500D02F3500426000EDF
:101D9000F420056E06500E02F350052607500B0284
:101DA000F3500326F4500422000E052207500C02C3
:101DB000F3500426F450052207500D02F350052677
:101DC00008500B02F3500426F450052208500C0270
:0E1DD000F350052609500B02F35005261200B1
:021DDE00056A94
:101DE000046A036A026A200EE76ED8900636073648
:101DF0000836093602360336043605360B50025CC7
:101E00000C5003580D5004580E50055809E30B5060
:101E1000025E0C50035A0D50045A0E50055A062A01
:061E2000E72EE4D71200DA
:0A1E2600056A046A036A180EE76EED
:101E3000D8900736083609360336043605360C5076
:101E4000035C0D5004580E50055807E30C50035E18
:101E50000D50045A0E50055A072AE72EEAD71200F1
:101E6000056A046A100EE76ED89008360936043603
:101E700005360D50045C0E50055805E30D50045E08
:0C1E80000E50055A082AE72EF0D7120079
:041E8C00800EF36E63
:101E900000EE00F00F0E01D81200EA6002D0EE6AE8
:0C1EA000FCD7F350E9601200EE6AFCD79A
:041EAC001EEE00F036
:101EB0002EEE00F0F86A019C68EC0EF003EC00F0E6
:081EC0002EEC00F0FBD712002C
:081EC800000000000000000012
:101ED0000000000000000000000000000000000002
:081EE0000100010001000100F6
:081EE8000102040810204080F3
:101EF00000000000000000000900000000000000D9
:101F00000100000009000000000014000000005162
:021F100033009C
:0E1F1200002020202020202020202020202021
:101F200020202020202020202020202020202020B1
:031F30002020204E
:0D1F330000000000000000000000000000A1
:101F40000000000000000000000000000000000091
:101F50000000001020408001020408010204081063
:031F60002040809E
:020000040030CA
:0100010002FC
:0100020003FA
:010003001EDE
:010005008179
:010006008178
:010008000FE8
:01000900C036
:01000A000FE6
:01000B00E014
:01000C000FE4
:01000D0040B2
:00000001FF
